{
  "contractName": "Lottery",
  "abi": [
    {
      "inputs": [],
      "stateMutability": "nonpayable",
      "type": "constructor"
    },
    {
      "inputs": [],
      "name": "lastWinner",
      "outputs": [
        {
          "internalType": "address",
          "name": "",
          "type": "address"
        }
      ],
      "stateMutability": "view",
      "type": "function",
      "constant": true
    },
    {
      "inputs": [],
      "name": "manager",
      "outputs": [
        {
          "internalType": "address",
          "name": "",
          "type": "address"
        }
      ],
      "stateMutability": "view",
      "type": "function",
      "constant": true
    },
    {
      "inputs": [
        {
          "internalType": "uint256",
          "name": "",
          "type": "uint256"
        }
      ],
      "name": "players",
      "outputs": [
        {
          "internalType": "address",
          "name": "",
          "type": "address"
        }
      ],
      "stateMutability": "view",
      "type": "function",
      "constant": true
    },
    {
      "inputs": [],
      "name": "enter",
      "outputs": [],
      "stateMutability": "payable",
      "type": "function",
      "payable": true
    },
    {
      "inputs": [],
      "name": "pickWinner",
      "outputs": [],
      "stateMutability": "nonpayable",
      "type": "function"
    },
    {
      "inputs": [],
      "name": "getPlayers",
      "outputs": [
        {
          "internalType": "address[]",
          "name": "",
          "type": "address[]"
        }
      ],
      "stateMutability": "view",
      "type": "function",
      "constant": true
    },
    {
      "inputs": [],
      "name": "getLastWinner",
      "outputs": [
        {
          "internalType": "address",
          "name": "",
          "type": "address"
        }
      ],
      "stateMutability": "view",
      "type": "function",
      "constant": true
    }
  ],
  "bytecode": "0x608060405234801561001057600080fd5b50336000806101000a81548173ffffffffffffffffffffffffffffffffffffffff021916908373ffffffffffffffffffffffffffffffffffffffff160217905550610ce9806100606000396000f3fe6080604052600436106100705760003560e01c8063e97dcb621161004e578063e97dcb62146100e2578063f71d96cb146100ec578063f88649a114610129578063fe1881841461015457610070565b8063481c6a75146100755780635d495aea146100a05780638b5b9ccc146100b7575b600080fd5b34801561008157600080fd5b5061008a61017f565b60405161009791906109dc565b60405180910390f35b3480156100ac57600080fd5b506100b56101a3565b005b3480156100c357600080fd5b506100cc61051c565b6040516100d991906109f7565b60405180910390f35b6100ea6105aa565b005b3480156100f857600080fd5b50610113600480360381019061010e91906107da565b610659565b60405161012091906109dc565b60405180910390f35b34801561013557600080fd5b5061013e610698565b60405161014b91906109dc565b60405180910390f35b34801561016057600080fd5b506101696106c2565b60405161017691906109dc565b60405180910390f35b60008054906101000a900473ffffffffffffffffffffffffffffffffffffffff1681565b60008054906101000a900473ffffffffffffffffffffffffffffffffffffffff1673ffffffffffffffffffffffffffffffffffffffff163373ffffffffffffffffffffffffffffffffffffffff1614610231576040517f08c379a000000000000000000000000000000000000000000000000000000000815260040161022890610a19565b60405180910390fd5b600060018054905011610279576040517f08c379a000000000000000000000000000000000000000000000000000000000815260040161027090610a59565b60405180910390fd5b60006001805490506102896106e8565b6102939190610b7b565b9050600180549050811015806103395750600073ffffffffffffffffffffffffffffffffffffffff16600182815481106102f6577f4e487b7100000000000000000000000000000000000000000000000000000000600052603260045260246000fd5b9060005260206000200160009054906101000a900473ffffffffffffffffffffffffffffffffffffffff1673ffffffffffffffffffffffffffffffffffffffff16145b1561034357600090505b6001818154811061037d577f4e487b7100000000000000000000000000000000000000000000000000000000600052603260045260246000fd5b9060005260206000200160009054906101000a900473ffffffffffffffffffffffffffffffffffffffff16600260006101000a81548173ffffffffffffffffffffffffffffffffffffffff021916908373ffffffffffffffffffffffffffffffffffffffff16021790555060018181548110610422577f4e487b7100000000000000000000000000000000000000000000000000000000600052603260045260246000fd5b9060005260206000200160009054906101000a900473ffffffffffffffffffffffffffffffffffffffff1673ffffffffffffffffffffffffffffffffffffffff166108fc479081150290604051600060405180830381858888f19350505050158015610492573d6000803e3d6000fd5b50600067ffffffffffffffff8111156104d4577f4e487b7100000000000000000000000000000000000000000000000000000000600052604160045260246000fd5b6040519080825280602002602001820160405280156105025781602001602082028036833780820191505090505b506001908051906020019061051892919061071e565b5050565b606060018054806020026020016040519081016040528092919081815260200182805480156105a057602002820191906000526020600020905b8160009054906101000a900473ffffffffffffffffffffffffffffffffffffffff1673ffffffffffffffffffffffffffffffffffffffff1681526020019060010190808311610556575b5050505050905090565b66470de4df8200003410156105f4576040517f08c379a00000000000000000000000000000000000000000000000000000000081526004016105eb90610a39565b60405180910390fd5b6001339080600181540180825580915050600190039060005260206000200160009091909190916101000a81548173ffffffffffffffffffffffffffffffffffffffff021916908373ffffffffffffffffffffffffffffffffffffffff160217905550565b6001818154811061066957600080fd5b906000526020600020016000915054906101000a900473ffffffffffffffffffffffffffffffffffffffff1681565b6000600260009054906101000a900473ffffffffffffffffffffffffffffffffffffffff16905090565b600260009054906101000a900473ffffffffffffffffffffffffffffffffffffffff1681565b600044426001604051602001610700939291906109a3565b6040516020818303038152906040528051906020012060001c905090565b828054828255906000526020600020908101928215610797579160200282015b828111156107965782518260006101000a81548173ffffffffffffffffffffffffffffffffffffffff021916908373ffffffffffffffffffffffffffffffffffffffff1602179055509160200191906001019061073e565b5b5090506107a491906107a8565b5090565b5b808211156107c15760008160009055506001016107a9565b5090565b6000813590506107d481610c9c565b92915050565b6000602082840312156107ec57600080fd5b60006107fa848285016107c5565b91505092915050565b600061080f8383610833565b60208301905092915050565b60006108278383610851565b60208301905092915050565b61083c81610b1b565b82525050565b61084b81610b1b565b82525050565b61085a81610b1b565b82525050565b600061086b82610a9e565b6108758185610ace565b935061088083610a79565b8060005b838110156108b15781516108988882610803565b97506108a383610ab4565b925050600181019050610884565b5085935050505092915050565b60006108c982610aa9565b6108d38185610adf565b93506108de83610a89565b8060005b83811015610916576108f382610bdb565b6108fd888261081b565b975061090883610ac1565b9250506001810190506108e2565b5085935050505092915050565b6000610930602783610aea565b915061093b82610bfb565b604082019050919050565b6000610953601d83610aea565b915061095e82610c4a565b602082019050919050565b6000610976601983610aea565b915061098182610c73565b602082019050919050565b61099d61099882610b4d565b610b71565b82525050565b60006109af828661098c565b6020820191506109bf828561098c565b6020820191506109cf82846108be565b9150819050949350505050565b60006020820190506109f16000830184610842565b92915050565b60006020820190508181036000830152610a118184610860565b905092915050565b60006020820190508181036000830152610a3281610923565b9050919050565b60006020820190508181036000830152610a5281610946565b9050919050565b60006020820190508181036000830152610a7281610969565b9050919050565b6000819050602082019050919050565b60008190508160005260206000209050919050565b600081519050919050565b600081549050919050565b6000602082019050919050565b6000600182019050919050565b600082825260208201905092915050565b600081905092915050565b600082825260208201905092915050565b600073ffffffffffffffffffffffffffffffffffffffff82169050919050565b6000610b2682610b2d565b9050919050565b600073ffffffffffffffffffffffffffffffffffffffff82169050919050565b6000819050919050565b6000610b6a610b6583610bee565b610afb565b9050919050565b6000819050919050565b6000610b8682610b4d565b9150610b9183610b4d565b925082610ba157610ba0610bac565b5b828206905092915050565b7f4e487b7100000000000000000000000000000000000000000000000000000000600052601260045260246000fd5b6000610be78254610b57565b9050919050565b60008160001c9050919050565b7f4f6e6c7920746865206d616e616765722063616e2063616c6c2074686973206660008201527f756e6374696f6e00000000000000000000000000000000000000000000000000602082015250565b7f4d696e696d756d20656e7472792066656520697320302e303220455448000000600082015250565b7f4e6f20706c617965727320696e20746865206c6f747465727900000000000000600082015250565b610ca581610b4d565b8114610cb057600080fd5b5056fea2646970667358221220d758396d3e94385de49a87d3f127b8299804ccfadc696fe2b88ad225dc81cad364736f6c63430008040033",
  "immutableReferences": {},
  "source": "pragma solidity ^0.8.4;\r\n\r\ncontract Lottery {\r\n    address public manager;\r\n    address[] public players;\r\n    address public lastWinner;\r\n\r\n    constructor() {\r\n        manager = msg.sender;\r\n    }\r\n\r\n    function enter() public payable {\r\n        require(msg.value >= .02 ether, \"Minimum entry fee is 0.02 ETH\");\r\n        players.push(msg.sender);\r\n    }\r\n\r\n    function pickWinner() public restricted {\r\n        require(players.length > 0, \"No players in the lottery\");\r\n\r\n        uint index = random() % players.length;\r\n\r\n        // Check if the selected index is valid, otherwise default to the first player\r\n        if (index >= players.length || players[index] == address(0)) {\r\n            index = 0;\r\n        }\r\n\r\n        lastWinner = players[index];\r\n        payable(players[index]).transfer(address(this).balance);\r\n        players = new address[](0);  // Reset players array\r\n    }\r\n\r\n    function getPlayers() public view returns (address[] memory) {\r\n        return players;\r\n    }\r\n\r\n    function getLastWinner() public view returns (address) {\r\n        return lastWinner;\r\n    }\r\n\r\n    function random() private view returns (uint) {\r\n        return uint(keccak256(abi.encodePacked(block.difficulty, block.timestamp, players)));\r\n    }\r\n\r\n    modifier restricted() {\r\n        require(msg.sender == manager, \"Only the manager can call this function\");\r\n        _;\r\n    }\r\n}\r\n",
  "sourcePath": "C:\\Adnan BMS\\College\\Code\\Blockchain\\lottery-dapp\\contracts\\Lottery.sol",
  "compiler": {
    "name": "solc",
    "version": "0.8.4+commit.c7e474f2.Emscripten.clang"
  },
  "schemaVersion": "3.4.16",
  "updatedAt": "2024-06-06T05:43:18.329Z",
  "networkType": "ethereum",
  "devdoc": {
    "kind": "dev",
    "methods": {},
    "version": 1
  },
  "userdoc": {
    "kind": "user",
    "methods": {},
    "version": 1
  }
}